:020000040800F2
:10000000F80D00209D010008E336000801330008C8
:10001000E136000859080008F1420008000000001D
:10002000000000000000000000000000613A00082D
:100030006D0C000800000000FD390008633A00085C
:10004000B7010008B7010008B7010008B7010008B0
:10005000B7010008B7010008B7010008B7010008A0
:10006000B7010008B7010008B7010008B701000890
:10007000A50B0008B7010008B7010008B701000888
:10008000B7010008B7010008B7010008B701000870
:100090005D080008B7010008B7010008B7010008B3
:1000A000B7010008B7010008B7010008B701000850
:1000B000B7010008B7010008B7010008B701000840
:1000C000B7010008B7010008B7010008B701000830
:1000D000B7010008E1410008B7010008ED41000840
:1000E000B7010008B7010008B7010008B701000810
:1000F000B7010008B7010008B7010008B701000800
:10010000B7010008B7010008B7010008B7010008EF
:10011000B7010008B70100080D3B0008B70100084F
:10012000B7010008B10B0008B7010008B7010008CB
:10013000B7010008B7010008B7010008B7010008BF
:10014000B7010008B7010008B7010008B7010008AF
:10015000B7010008BD0B0008B7010008A142000864
:10016000B7010008B7010008B7010008B70100088F
:10017000B7010008B7010008B7010008000000003F
:10018000B7010008B7010008DFF80CD000F01AFB37
:1001900000480047594F0008F80D002006488047E6
:1001A00006480047FEE7FEE7FEE7FEE7FEE7FEE75C
:1001B000FEE7FEE7FEE7FEE7FD3A000889010008DA
:1001C0002DE9F05F0546002092469B46884606468C
:1001D000814640241BE0284641464746224600F01F
:1001E0003AFA53465A46C01A914110D3114618465E
:1001F000224600F021FA2D1A67EB01084F462246ED
:100200000120002100F018FA17EB00094E41201ED2
:10021000A4F10104DFDC484631462A464346BDE8E6
:10022000F09F40EA01039B0703D009E008C9121FB1
:1002300008C0042AFAD203E011F8013B00F8013BA0
:10024000521EF9D27047D2B201E000F8012B491ECC
:10025000FBD270470022F6E710B513460A46044663
:100260001946FFF7F0FF204610BD2DE9FE4F8046EE
:1002700081EA0300C00F0C46009021F0004123F0FA
:100280000045B8EB0200A94105D240462146904600
:100290001C460B46024623F00040104347D0270D72
:1002A000C7F30A00C3F30A510290401A0190402894
:1002B0006BDAC3F3130040F4801B0098924620B120
:1002C0000023D2EB030A63EB0B0B01985946C0F1F4
:1002D0004002504600F0B0F906460D4650465946D9
:1002E000019A00F0C8F910EB08006141002487EA88
:1002F000115284EAE7731A4340D0009A62B3019A1C
:10030000012A4FEA075215DC001B61EB02014FF096
:10031000004202EA0752CDE90042001C41F580117B
:1003200032462B4600F0FFF903B0BDE8F08F40469F
:100330002146F9E7001B61EB0201001C41F5801327
:1003400000185B412018A2F5001747EB030140EAB3
:10035000D570B6196D4111E06D084FEA360645EAD1
:10036000C0754FEA0752001B61EB0201001C41F50A
:10037000801149084FEA30000019514132462B469E
:1003800003B0BDE8F04F00F0BFB900980122400073
:100390000023D0EB020263EBE073009821464FEAA2
:1003A000E074B8EB000061EB0401E9E783F000437F
:1003B0005BE781F0004158E72DE9FE4F81EA030435
:1003C00004F0004421F0004100944FF0000B23F0B2
:1003D000004350EA01045ED052EA03045BD0C3F349
:1003E0000A54C1F30A552C44A4F2F3340194A0FB3F
:1003F0000254C1F3130141F48011C3F3130343F416
:10040000801301FB024400FB034E840A970A44EA6E
:10041000815447EA8357A4FB076802958D0A05FBC0
:1004200007854FEA932C04FB0C542705029D4FEAE5
:10043000065847EA1637B5EB08056EEB070C870E32
:10044000920E47EA811742EA8312A7FB0201B6EB3C
:100450000B0164EB00042B0D43EA0C335E1844EBF4
:100460001C50DA465146E7FB0201C5F313044FEA7C
:100470000B3343EA14534FEA0432019C43EA060368
:10048000A4F10C040294009CCDE900B400F04BF9F7
:1004900003B0BDE8F08F00200146F9E72DE9F04DEB
:1004A00081EA030404F0004B21F0004514464FF0AC
:1004B000000A23F0004150EA050220D054EA01026C
:1004C0001DD0C5F30A570246C5F31303C1F3130049
:1004D000C1F30A5640F4801543F48013A7EB0608D5
:1004E000101BD64608F2FD3873EB050002D308F165
:1004F000010801E092185B41B8F1000F03DA002017
:100500000146BDE8F08D00204FF480110646844678
:100510000EE0171B73EB050705D3121B63EB0503F6
:1005200006434CEA010C49084FEA300092185B413F
:1005300050EA0107EDD152EA030012D082EA04002A
:1005400083EA0501084305D0101BAB4106D2012206
:10055000002306E000224FF0004302E06FF00102AA
:1005600053101AEB06004CEB085110EB0A0041EB5C
:100570000B01BDE8F04D00F0C7B80EB5C10F80EA21
:10058000E0700844CA07002140F233438DE80E00B2
:100590000A460B4600F0C7F803B000BD70B5C1F3C2
:1005A0000A5201F000450024C1F3130140F2FF3369
:1005B00041F480119A4201DA002070BD40F23343C9
:1005C0009A42A2F2334203DC524200F044F800E0C7
:1005D00090402C43F1D0404270BD00F0004230F01A
:1005E00000400AD0C10D01F56071C0F3160042EA67
:1005F0000151C2084007114370470020014670476F
:1006000001F0004330B421F0004150EA010206D06D
:100610000A0DA2F56072C1F31301002A02DC30BC9E
:1006200000207047440F44EAC104C100E01830BC08
:1006300000EBC25000F031B8202A04DB203A00FA67
:1006400002F1002070479140C2F1200320FA03F329
:10065000194390407047202A04DB203A21FA02F027
:100660000021704721FA02F3D040C2F120029140EC
:10067000084319467047202A06DBCB17203A41FA77
:1006800002F043EAE07306E041FA02F3D040C2F11F
:10069000200291400843194670470029A8BF7047BF
:1006A000401C490008BF20F00100704710B4B0FAA8
:1006B00080FC00FA0CF050EA010404BF10BC704743
:1006C00049B1CCF1200421FA04F411FA0CF118BF5D
:1006D000012121430843A3EB0C01CB1D4FEA00612C
:1006E0004FEA102042BF002010BC704700EBC350FF
:1006F00010440029A4BF10BC7047401C490008BF2B
:1007000020F0010010BC704710B5141E73F10004F6
:1007100008DA401C41F1000192185B411A4301D1F3
:1007200020F0010010BD2DE9F04D92469B4611B11D
:10073000B1FA81F202E0B0FA80F220329046FFF77F
:100740007BFF04460F4640EA0A0041EA0B0153468C
:100750005A46084313D0114653EA010019D0C8F194
:1007600040025046FFF777FF05460E465046594671
:100770004246FFF761FF084305D0012004E0204610
:100780003946BDE8F08D0020054346EAE0762C436B
:1007900037430A986305E40AA0EB08000022FD0A2B
:1007A00044EA47540A3002D500200146E9E7010532
:1007B00010196941DDE9084500196941BDE8F04DAE
:1007C000A2E70000064C074D06E0E06840F0010398
:1007D00094E8070098471034AC42F6D3FFF7D8FCF2
:1007E000C0550008E05500080EB540F233410291B3
:1007F0000021CDE900110A460B46FFF794FF03B034
:1008000000BD70B58C1810F8015B15F0070301D11D
:1008100010F8013B2A1106D110F8012B03E010F863
:10082000016B01F8016B5B1EF9D12B0705D4002386
:10083000521E0DD401F8013BFAE710F8013BCB1A28
:10084000921C03E013F8015B01F8015B521EF9D51D
:10085000A142D8D3002070BDFEE70000014800F09F
:1008600066BD00005401002038B50E4C4FF40075F1
:1008700025600025A560E560082525610A4C050A6C
:1008800025706070080AA070E170100A2071627112
:10089000180AA071E3716B4622460249034800F032
:1008A000E7FB38BDB80400201C00002054010020E4
:1008B00038B50E4C40F2FF1525600025A560E560B7
:1008C000082525610A4C050A25706070080AA07089
:1008D000E170100A20716271180AA071E3716B4611
:1008E00022460249034800F0C3FB38BDA0040020A3
:1008F0001400002054010020194810B5036800219D
:10090000184AB3F87340DFED180A18483C2C16D289
:100910004180012182F8A010B3F87310DFED141AA2
:1009200000EE101AB8EE401A81EE210A80ED010A9D
:1009300060EE200A20EE800A82ED170A10BD43887F
:100940005B1C1BB24380642BF8DB418082F8A01053
:10095000C2ED170AB7EE000A80ED010A10BD0000D3
:10096000340100204005002000803B462800002084
:100970000000704270B523482DED028BB0F90400E1
:10098000FFF7FBFD9FED201B53EC112BFFF714FD30
:10099000FFF736FE1E4D08EE100AB5F90200F0EE24
:1009A000480A00EE100A1B48B8EEC00A064602F0DC
:1009B00043FF184CF0EE480A4C3C84ED260AB5F98A
:1009C000120000EE100A3046B8EEC00A02F034FF02
:1009D00084ED270AFFF790FF94ED270A00231A46BB
:1009E000BDEEC00A10EE100A94ED260ABDEC028B93
:1009F000BDEEC00A01B2BDE8704010EE100A00B2B0
:100A0000FFF732BFD0080020000000000000F83FD0
:100A1000F00400208C05002070B52DED028B9FEDB9
:100A2000550B564C53EC102B94ED040B51EC100B62
:100A3000FFF71BFC41EC100B84ED040B03F0B8FC3A
:100A40009FED4F1B51EC100B53EC112BFFF7B4FC37
:100A5000FFF7A4FD4C49896800297CD023784B49D5
:100A60009FED4B1A4B4D4C4ADFED4C1A012B01D038
:100A7000B3B12BE0AB68002800DC404241F66416BD
:100A80003044184400EE100AB8EEC00A10EE100A06
:100A900084ED020A884219DD84ED021A002014E078
:100AA000AB68002800DC4042181AA0F5C850643832
:100AB00000EE100AB8EEC00A10EE100A84ED020A29
:100AC000904203DAC4ED021A01202070D4ED020A2C
:100AD00010EE900A884202DDF0EE410A05E010EEC9
:100AE000900A904201DAF0EE610AC4ED020A95ED37
:100AF000020A2B48B8EEC00A02F09EFEB5F90200C9
:100B0000B0EE408A00EE100A2548F0EE480A4C305C
:100B1000B8EEC00A064602F08FFE214CF0EE480AFD
:100B200084ED260AB5F9120000EE100A3046B8EE40
:100B3000C00A02F081FE84ED270AFFF7DDFE94ED86
:100B4000270ABDEEC00A10EE100A94ED260A01B283
:100B5000BDEEC00A00E00AE0BDEC028B10EE100A08
:100B6000BDE87040002300B21A46FFF77DBEBDEC21
:100B7000028B70BDFCA9F1D24D62503F28000020CD
:100B80000000000000004940E004002000E6AA49FF
:100B900000E6AA49F004002000007A4400007A44EC
:100BA00040050020014800F099BE000038030020F5
:100BB000014800F093BE000098030020014800F0B7
:100BC0008DBE0000F803002001681823CAB2103A55
:100BD000B2FBF3F2054B6FF30901032A9B5CC3657B
:100BE00000D9091D816508467047000010510008B2
:100BF00010B5014600208B698A6A4FF0C07453B16A
:100C0000B3F5005F15D072B1012A0CD0022A0AD0C8
:100C1000032A09D104E01AB1012A06D0022A03D11D
:100C2000C96AC90100D5012010BDC96AA142FAD024
:100C300010BD002AF7D0012AF2D0022AF3D0032AED
:100C4000F3D010BD30B50468256825F480252560F3
:100C5000046863608368402B036803D09960006870
:100C6000C26030BD9A600068C16030BD704772B626
:100C7000FEE70000044900F24C420B685A63096821
:100C800000F5966088637047DC01002010B558B10C
:100C9000084C491E0BD310F8013B5340DBB234F82B
:100CA000133083EA1222F4E74FF6FF7010BD1046AE
:100CB00010BD0000A052000810B5064C04E000BFB3
:100CC00010F8013B5340E25C491E89B2F8D210464D
:100CD00010BD0000A051000810B5F0EE000AB7EEFC
:100CE000000A064802F02AFB0448BDE81040F0EE76
:100CF000000AB7EE000A303802F020BB00080020DE
:100D000010B51F4C2DED048BB4F90000FFF735FC36
:100D10009FED1C9B53EC192BFFF74EFBFFF770FC6C
:100D200008EE100AB4F90200FFF727FC53EC192B68
:100D3000FFF742FBFFF764FC08EE900A1348F0EE61
:100D4000480AB0F9020000EE100A1148B8EEC00AD5
:100D500002F072FD0E4C0F48E43CF0EE680A84EDA0
:100D60005F0AB0F9020000EE100A04F59870B8EEC0
:100D7000C00A02F061FD84ED600ABDEC048B10BD79
:100D8000D0080020000000000000F83FD004002040
:100D900028070020E00400202DE9F04F04462DED47
:100DA000048B83B09FED998A994EB168002968D071
:100DB000984FDFF8648207F110053A8805F1E400E6
:100DC00001904C30DFF854A24FF0000B4FF00109B6
:100DD0000090012A1BD0DAF80800914C00EE100AAE
:100DE00057465A46B8EEC00A84ED010A00EE101AC2
:100DF000B8EEC00A84ED020AC8F89CB023789FEDD3
:100E0000890A9FED892A012B5CD0C3B37AE081481F
:100E1000A188F0EE480AC08800EE100A7D48B8EEBE
:100E2000400A103061B302F007FDF1EE408A2089DC
:100E30009FED7E9B00287889F0EE480A00EE100AAC
:100E40007448B8EE400A00F1100020D002F0F4FC23
:100E5000B1EE400A10EE100AFFF7BFFB53EC192B5E
:100E6000FFF71CFBFFF7CCFB08EE100AE0886428B4
:100E700010D2608964280DD2C8F89C900CE031E053
:100E800000E0BEE002F0D8FCF0EE408ACFE702F0CE
:100E9000D3FCDFE7C8F89CB0BAF90200F0EE680AAC
:100EA00000EE100A0198B8EEC00A02F0C5FC85ED0C
:100EB0005F0AB6F90200F0EE480A00EE100AB8EE3A
:100EC000C00A99E000F1140300EE903A40F6B833FE
:100ED000D842F8EEE00AC4ED010A13DD84ED010A00
:100EE00022700FE0A0F1140300EE903A41F2883333
:100EF000D842F8EEE00AC4ED010A03DA84ED012AD3
:100F000084F8009063789FED4B1ADFED4B1A012BAC
:100F100001D083B11FE001F10A0300EE903A40F6E0
:100F2000D8639942F8EEE00AC4ED020A13DD84EDBD
:100F3000021A62700FE0A1F10A0200EE902A40F658
:100F4000B8329142F8EEE00AC4ED020A03DAC4EDC9
:100F5000021A84F80190D4ED010A384A10EE901A72
:100F6000914202D2F0EE400A06E010EE901A344AA6
:100F7000914201D9F0EE420AC4ED010A94ED020A51
:100F8000304A10EE101A914202DDB0EE410A06E03E
:100F900010EE101A2C4A914201DAB0EE610A84ED8B
:100FA000020A00EE100A1B48B8EEC00A5C3002F0DC
:100FB00043FCB0EE408A96ED020A1648D4ED020AD0
:100FC000B8EEC00AA83002F037FCB7F90200F0EE24
:100FD000408A00EE100AF0EE480A0198B8EEC00A06
:100FE00002F02AFC85ED5F0AB6F90200F0EE680A0D
:100FF00000EE100AB8EEC00A009802F01DFC85ED64
:10100000600A03B0BDEC048BBDE8F08F0000000067
:10101000E00400203406002030080020D004002026
:101020004400002000803BC500409CC5CDCCCCCC0A
:10103000CCCCFC3F00806D4500803B4500803BC52B
:1010400000409CC500806D4500803B4590F8202005
:10105000012A07D0022A05D0416A41F48021416269
:1010600001207047006842690A43426100207047CE
:10107000F0B590F820500468A468012D05D0022D29
:1010800003D0416A41F4802153E014F0406F01D154
:10109000E5004BD5C4F30164022C03D9416A41F445
:1010A000000146E00125A5401D608D684FF4C07326
:1010B0009DB1CE6835434E6845EAC605066803EB28
:1010C0000417F5514FF4C275076805EB04150E6956
:1010D0007E51097D012905D009E00E88CD6845EAD9
:1010E0004655EBE701684E5946F480764E5111792A
:1010F000D2F805504FF4C67641EA0525016806EBA3
:1011000004168D511178D2F801204FF4C47541EACC
:101110000221026805EB04155151006803EB04112C
:10112000425842F0010242500020F0BD416A41F4B1
:10113000001141620120F0BD10B590F82020012A75
:1011400007D0022A05D0416A41F480214162012082
:1011500010BD3B48D0F8002242F00102C0F8002246
:10116000D0F8002222F47C52C0F80022D0F80022ED
:101170004B6A42EA0322C0F800220A7D02F01F03F4
:1011800001229A40D0F81C329343C0F81C32CB693C
:10119000B3B9D0F80C329343C0F80C328C894B6849
:1011A00064F31F434C6900EBC404C4F840320C895B
:1011B0000B6864F31F434C6900EBC404C4F8443269
:1011C000CB69012B16D1D0F80C321343C0F80C3286
:1011D0000C884B6864F31F434C6900EBC404C4F8EB
:1011E00040320C89CB6864F31F434C6900EBC404A4
:1011F000C4F844328B69002BD0F804320ED013436C
:10120000C0F804320B69002BD0F8143208D0134315
:10121000C0F81432096A012904D008E09343EFE7CB
:101220009343F5E7D0F81C121143C0F81C12D0F814
:10123000001221F00101C0F80012002010BD0000D2
:1012400000640040704730B590F82040012C05D074
:10125000022C03D0416A41F480215DE0046800293A
:1012600055D02469A40754D04FF4D874056804EB12
:1012700001142D5915F00405956005682D594ED0BF
:10128000ED08556005682C5904F00204D4604FF451
:10129000DA74056804EB01142D5905F00F0515618A
:1012A00005682D59C5F30725956105682C59240C4F
:1012B00054614FF4DC72046802EB0112A4581C70F4
:1012C0000468A458240A5C700468A458240C9C7018
:1012D0000468A258120EDA704FF4DE72046802EB52
:1012E0000112A4581C710468A458240A5C71046893
:1012F000A458240C9C710468A258120EDA7100687C
:1013000081B1016941F020010161002030BDE46834
:10131000A8E7416A41F400114162012030BD6D0D22
:101320001560AFE7C16841F02001C160EDE72DE92C
:10133000F05F0546006800244669D0F8049087688D
:10134000D0F80CB0D0F810A0D0F81880F10748D031
:10135000F90714D001218160B80703D5284600F0B1
:101360005CFA0CE0780702D54FF4006407E0380718
:1013700002D54FF4805402E0284600F04DFAF805FB
:1013800016D529684FF480708860B80503D52846C3
:1013900000F045FA0CE0780502D544F4005407E06B
:1013A000380502D544F4804402E0284600F036FABD
:1013B000F80316D529684FF480308860B80303D548
:1013C000284600F02EFA0CE0780302D544F40044DD
:1013D00007E0380302D544F4803402E0284600F0E8
:1013E0001FFA300707D55FEACB6004D529681020C3
:1013F00044F40074C86070074FF0080707D55FEA2F
:101400000B7004D52868C760284600F057F9B0076C
:1014100006D52868C068800702D0284600F050F939
:10142000700607D55FEACA6004D52968102044F425
:1014300080640861B00607D55FEA0A7004D52868A1
:101440000761284600F0B8F9F00606D5286800695B
:10145000800702D0284600F0B0F9B00308D55FEA53
:10146000C96005D5296810204860284600F0A6F913
:10147000F00307D55FEA097004D52868476028465D
:1014800000F0D0F9300446D55FEA497040D5F00548
:1014900004D55FEAC87001D044F00104B00504D55A
:1014A0005FEA887001D544F00204700504D55FEA54
:1014B000487001D544F00404300529D518F0700FA8
:1014C00026D008F07000402815D006DC102809D07E
:1014D00020280AD0302816D10AE050280ED06028E3
:1014E00011D10EE044F008040DE044F010040AE0CD
:1014F00044F0200407E044F0400404E044F0800499
:1015000001E044F480742868816921F070018161F0
:10151000296804204860002C05D0686A204368626E
:101520002846FFF78FFEBDE8F09F70B5040003D09A
:1015300094F8200010B104E0012070BD204600F0B6
:1015400081F82068016841F00101016000F050FC61
:101550000546052604E000F04BFC401B0A2811D884
:1015600020684068C007F6D02068016821F00201B9
:10157000016000F03DFC05460BE000F039FC401B2B
:101580000A2806D9606A40F40030606284F820605E
:10159000D2E7206840688007EFD4207E01282068C9
:1015A00001683DD021F080010160607E0128206843
:1015B000016838D021F040010160A07E0128206838
:1015C000016833D021F020010160E07E012820680D
:1015D00001682ED041F010010160207F01282068B1
:1015E000016829D021F008010160607F012820688E
:1015F000016824D021F004010160D4E9020108430C
:10160000D4E90412114308436168491E0843216864
:10161000C86100206062012084F82000002070BDB5
:1016200041F08001C0E741F04001C5E741F02001F1
:10163000CAE721F01001CFE741F00801D4E741F0FB
:101640000401D9E710B586B0044614216846FEF7B8
:1016500001FE17492068884227D1164800210268F8
:1016600042F000720260006800F0007005901148BE
:101670001038026842F0080202600068022200F09E
:10168000080005900320CDE90210CDE900020920F1
:1016900004906946084800F0A5FA0022114614207B
:1016A00000F014FC142000F003FC06B010BD000094
:1016B0000064004040380240000C024070470000C7
:1016C00000B589B06B4602AA0021FFF7BCFD029964
:1016D0003848A1F2012107292ED2DFE801F00412D7
:1016E000212F3C4B5A00BDF8001049BA0180BDF8CB
:1016F000021049BA4180BDF8041049BA81802D48D2
:1017000055E0BDF8001049BA0182BDF8021049BA8F
:101710004182BDF8041049BA81822648103046E063
:10172000BDF8001049BA0184BDF8021049BA4184DD
:10173000BDF8041049BA818409B000BDBDF800109D
:1017400049BA0186BDF8021049BA4186BDF80410B5
:1017500049BA8186F0E7BDF8000041BA1548203843
:101760000180BDF8021049BA4180BDF8041049BAA1
:1017700081801CE0BDF8000041BA0E48103801809D
:10178000BDF8021049BA4180BDF8041049BA818001
:101790000DE0BDF8000041BA064840300180BDF8B8
:1017A000021049BA4180BDF8041049BA818003F0A3
:1017B00033FCC1E7F0040020704770477047000019
:1017C00070B5044690F82000012804D0606A40F407
:1017D0000020606218E0022084F820002068016880
:1017E00021F00101016000F003FB05460EE000BF9F
:1017F00000F0FEFA401B0A2808D9606A40F4003065
:101800006062052084F82000012070BD20684068D7
:10181000C007EDD1606270BD704770477047704778
:101820007047704770472DE9F0410446876D00F01E
:10183000DFFA064694F835000025022806D08020FD
:10184000606584F834500120BDE8F08120680168AB
:1018500021F0160101602068416921F08001416199
:10186000206C08B9A06C20B12068016821F0080143
:1018700001602068016821F0010101600CE000F0C6
:10188000B7FA801B052807D920206065032084F85B
:10189000350084F83450D7E720680068C007EED1DF
:1018A00094F85C103F208840B860012084F835002F
:1018B00084F834500020C7E790F83510022903D08F
:1018C0008021416501207047052180F835100068AE
:1018D000016821F001010160002070472DE9F84303
:1018E00004464FF00009CDF8009063484FF41651BC
:1018F000A56D0068B0FBF1F72E6894F85C10082025
:1019000000FA01F131420FD021680A6852070BD565
:101910000A6822F004020A6094F85C108840A8600B
:10192000606D40F00100606594F85C104FF00108B4
:1019300008FA01F0304208D021684969090604D547
:10194000A860606D40F00200606594F85C100420AF
:101950008840304208D021680968890704D5A8600A
:10196000606D40F00400606594F85C1010208840C1
:10197000304218D021680968090714D5A86020688A
:101980000168490304D50068000308D5A16C07E08D
:101990000168C90503D4016821F008010160216CC8
:1019A00009B12046884794F85C10202088403042D6
:1019B00031D021680968C9062DD5A86094F8350092
:1019C00005282068016806D0490347D50068000350
:1019D0001DD4616C1CE021F0160101602068416992
:1019E00021F080014161206C08B9A06C20B1206811
:1019F000016821F00801016094F85C103F208840E4
:101A0000A86084F8358084F83490216D1FE0E16B84
:101A100009B120468847606D00282BD0606DC00753
:101A200014D0052084F835002068016821F00101F8
:101A300001600098401C0090B84203D820680068FC
:101A4000C007F6D184F8358084F83490E16C002921
:101A500010D001B02046BDE8F04308470168C90531
:101A6000D5D4016821F01001016084F8358084F834
:101A70003490CCE7BDE8F883100000202DE9F04158
:101A8000044600F0B5F906465CB1022084F8350042
:101A9000002584F834502068016821F001010160BC
:101AA0000DE00120BDE8F08100F0A2F9801B0528BF
:101AB00005D920206065032084F83500F2E720680E
:101AC0000068C007F0D12268116820480140D4E9BD
:101AD00001031843D4E903363343184363691843B9
:101AE000A3691843E3691843236A18430843616AEA
:101AF000042903D1D4E90B1319430843106020686B
:101B00004069666A20F0070130460E430127042829
:101B10000CD1A06A0643E06A40B12046FFF768F89E
:101B200020B14020606584F83570BAE720684661CE
:101B30002046FFF749F894F85C203F2191408160EE
:101B4000656584F835700020ACE700003F8010F038
:101B50002DE9F0410446866D90F8340000250128F7
:101B60000DD0012084F8340094F835700020012F46
:101B700007D084F8340002252846BDE8F081022011
:101B8000FBE7022784F8357060652046FFF75AF8B6
:101B900094F85C103F208840B0602068016841F0F4
:101BA00016010160206C20B12068016841F0080135
:101BB00001602068016841F001010160DCE700007C
:101BC00070B5044600F014F90546601C02D00448C4
:101BD0000078044400F00CF9401BA042FAD370BD19
:101BE000040000202DE9F84FDFF8BCA100220125F8
:101BF0000AF1040B03264FF00F090BF1040E00BF8E
:101C00000B6805FA02F42340A34270D10F7907F064
:101C10000307012F01D0022F16D187684FEA42082F
:101C200006FA08FC27EA0C07D1F80CC00CFA08FCED
:101C30004CEA070CC0F808C04768A7430C79C4F306
:101C4000001494403C4344600C79E443A4070AD058
:101C5000C4684FEA420C06FA0CF7BC438F6807FAD7
:101C60000CF72743C7600C7904F00304022C12D14F
:101C7000D40800EB840CDCF820405707FF0E09FA6B
:101C800007F824EA0804D1F8108008FA07F848EAAF
:101C90000408CCF8208004684FEA420C06FA0CF7DE
:101CA000BC430F7907F0030707FA0CF727430760D7
:101CB0004C6814F4403F70D03C4C276847F4804790
:101CC0002760246822F0030704F480440094384C11
:101CD00007EB040CDCF8084897074FEA177809FA75
:101CE00008F7BC43334FB84202D1002724E054E048
:101CF000314FB84201D101271EE0304FB84201D127
:101D0000022719E02E4FB84201D1032714E02D4FCE
:101D1000B84201D104270FE02B4FB84201D105276B
:101D20000AE02A4FB84201D1062705E0284FB84201
:101D300001D1072700E0082707FA08F72743CCF866
:101D40000878DAF800405746D1F804C09C435FEAAF
:101D5000CC3C00D51C433C60DBF800405F46D1F82A
:101D600004C09C435FEA8C3C00D51C433C60DEF819
:101D700000407746D1F804C09C435FEACC2C00D5E4
:101D80001C433C60084F0C373C68D1F804C09C43AE
:101D90005FEA8C2C00D51C433C60521C102AFFF4D7
:101DA0002FAFBDE8F88F0000003C014044380240EE
:101DB00000300140000002400004024000080240E0
:101DC000000C0240001002400014024000180240C3
:101DD000001C0240426921EA02030A4043EA024130
:101DE000816170470AB1816170470904FBE7000017
:101DF00001488068704700000400002002488168A4
:101E00000278114481607047040000200B4810B52F
:101E1000016841F400710160016841F48061016072
:101E2000016841F480710160032000F06FF8002028
:101E300000F006F800F024F8002010BD003C02403D
:101E400070B50D4D04464FF47A712878B1FBF0F06F
:101E50000A490968B1FBF0F000F00CFB48B9102CFE
:101E600007D200222146501E00F030F800206C609E
:101E700070BD012070BD0000040000201000002093
:101E80000A4808B5016841F480410160006800F427
:101E9000804000900548001F016841F080510160BA
:101EA000006800F08050009008BD000044380240F7
:101EB000002809DB00F01F02012191404009800049
:101EC00000F1E020C0F8001170470000F0B40E4BA4
:101ED0001B680C46C3F30223C3F10705042D00D988
:101EE0000425191D072901D2002300E0DB1E01266D
:101EF00006FA05F1491E214099409E40761E164083
:101F00003143F0BC02F041BA0CED00E0064900F0AC
:101F1000070208684FF6FF03184040EA0220034A10
:101F200010430860704700000CED00E00000FA0567
:101F30002DE9F0470E46050065D0DFF81481D8F88A
:101F40000000F7B200F00700B04207D288F8007036
:101F5000D8F8000000F00700B04254D128683D4C8A
:101F6000810712D5400703D5206840F4E050206077
:101F70002878000703D5206840F46040206020687E
:101F8000A96820F0F000084320602878C0072DD011
:101F9000304968680839012812D0022813D0032874
:101FA00011D00968890700292DDA216821F0030181
:101FB00001432160FFF71CFF814641F2883A0EE0A1
:101FC00009688903EFE709688901ECE7FFF710FF6B
:101FD000A0EB0901514502D90320BDE8F087206834
:101FE000696800F00C00B0EB810FEFD1D8F8001059
:101FF000404601F00701B14207D90770006800F0C0
:102000000700B04201D00120E7E72878400705D556
:102010002068E96820F4E050084320602878000731
:1020200006D52068296920F4604040EAC10020609C
:1020300000F038F82168084AC1F30311515CC84028
:102040000649086006480068FFF7FAFE0020C4E76A
:10205000003C0240083802401851000810000020DF
:10206000080000200448054900680968044AC1F3D3
:102070008221515CC840704710000020083802409F
:10208000285100080448054900680968044AC1F35A
:102090004231515CC84070471000002008380240AF
:1020A00028510008154810B5006810F00C021448BB
:1020B00013D01449042A0FD0082A0ED10F4C241F24
:1020C0002268236802F03F025B0207D52068C0F354
:1020D0008810A0FB010106E0084610BD2168C1F38D
:1020E0008811A1FB00010023FEF76AF82168C1F303
:1020F0000141491C4900B0FBF1F010BD0838024015
:102100000024F40040787D012DE9F84F04006ED0E2
:102110002078DFF84C93C007A9F104054AD009F1F3
:1021200004000168C1F38101012908D00068C0F3EF
:10213000810002280AD1D9F80000400206D528689B
:10214000800337D560680028E1D033E06068B0F5DF
:10215000803F10D0B0F5A02F286810D020F4803038
:102160002860286820F4802028606068A8B1FFF704
:102170003FFE06460DE0286840F48030F4E740F466
:1021800080202860F7E700BFFFF732FE801B64283D
:1021900073D828688003F7D50CE0FFF729FE0646C0
:1021A00005E000BFFFF724FE801B6428F0D82868F4
:1021B0008003F7D42078DFF8AC8280074FF0000A64
:1021C0003ED5A748001D016811F00C0F08D000682B
:1021D000C0F3810002280BD1D9F80000400207D4D7
:1021E0002868800716D5E068012800D112E033E1A5
:1021F000E068B8B10120C8F80000FFF7F9FD064615
:1022000005E000BFFFF7F4FD801B0228C0D8286856
:102210008007F7D52868216920F0F80040EAC1005E
:1022200028600DE0C8F800A0FFF7E2FD064604E0D4
:10223000FFF7DEFD801B02281FD828688007F7D42F
:102240002078000722D5864F87486169703771B1C1
:1022500001210160FFF7CCFD064604E0FFF7C8FD51
:10226000801B022809D838688007F7D50EE0C0F82F
:1022700000A0FFF7BDFD064605E082E0FFF7B8FDD0
:10228000801B02287DD838688007F7D42078400763
:1022900068D5DFF8CCB100270BF13C0BDBF8000070
:1022A000C0000BD4DBF8001041F08051CBF80010D7
:1022B000DBF80000012700F0805000906B4E306882
:1022C000C00510D4306840F480703060FFF790FD96
:1022D000009005E0FFF78CFD0099401A022850D8C5
:1022E0003068C005F6D55E4EA0686C3601280FD068
:1022F0000528306810D020F001003060306820F0F0
:1023000004003060A068B8B1FFF772FD00900FE0E4
:10231000306840F00100F4E740F004003060F7E777
:10232000FFF766FD0099411A41F28830814266D874
:1023300030688007F4D50EE0FFF75AFD009007E003
:10234000FFF756FD0099411A41F28830814256D874
:1023500030688007F4D42FB1DBF8001021F08051F1
:10236000CBF80010A069C8B33D49091D0968C1F345
:10237000810102294AD00228504607D0C8F86000DF
:1023800000E03CE0FFF734FD04463BE04746C8F878
:102390006000FFF72DFD064605E000BFFFF728FDB2
:1023A000801B02282BD828688001F7D4D4E90701C4
:1023B0000843A16A2E4A490802EB0141626A41EAD8
:1023C0008211084394F82C1040EA0161C9F800100A
:1023D00001203866FFF70CFD044606E03EE000BF32
:1023E000FFF706FD001B022809D828688001F7D5F1
:1023F00034E000BFFFF7FCFC001B022802D90320D9
:10240000BDE8F88F28688001F4D427E00128F7D0D0
:10241000D9F80000E26900F4800191421CD1226ADF
:1024200000F03F01914217D147F6C071626A014046
:10243000B1EB821F10D1A26A4FF0FF3300F440319C
:1024400003EB5202B1EB024F06D194F82C1000F0CE
:102450007060B0EB016F01D00120D1E70020CFE721
:102460000438024000004742800E4742007000409E
:102470000000FFFF10B5401EB0F1807F01D30120A6
:1024800010BD4FF0E02460610F21601701F07DFF67
:102490000020A06107202061002010BD7047704718
:1024A00010B590F83C20012A22D0012280F83C206F
:1024B000CA688C6822F4407222434C6822F480621D
:1024C00022430C6822F4006222430C6922F48052F9
:1024D00022434C6922F400522243C969002322F4AA
:1024E00080420A4301684A6480F83C30002010BDF5
:1024F000022010BD70B590F83C20012A32D0012492
:1025000080F83C40022280F83D2003685A689D68AC
:1025100022F070060A6832435A60134B02689A42EE
:1025200014D0B2F1804F11D0104B9A420ED0104B04
:102530009A420BD00F4B9A4208D00F4B9A4205D0CB
:102540000E4B9A4202D00E4B9A4204D1496825F0B4
:1025500080031943916080F83D40002180F83C10D1
:10256000084670BD022070BD00000140000400401C
:1025700000080040000C0040000401400040014001
:102580000018004010B5040003D094F83D0010B1CD
:1025900007E0012010BD002084F83C00204600F038
:1025A0001FF8022084F83D00211D206801F0B4FAD4
:1025B000012084F8460084F83E0084F83F0084F847
:1025C000400084F8410084F8420084F8430084F815
:1025D000440084F8450084F83D00002010BD000050
:1025E00008B500681149884209D11148016841F0D5
:1025F00001010160006800F00100009008BD0D4974
:102600008842FBD10A48001F016841F010010160B7
:102610000068002200F01000009011463620FFF7FD
:1026200055FCBDE808403620FFF742BC00000140E1
:10263000443802400010004090F83D10012901D0BC
:1026400001207047022180F83D100068114988423E
:1026500014D0B0F1804F11D00F4988420ED00F49ED
:1026600088420BD00E49884208D00E49884205D0D6
:102670000D49884202D00D49884204D1816801F099
:102680000701062903D0016841F001010160002023
:1026900070470000000001400004004000080040B6
:1026A000000C0040000401400040014000180040C0
:1026B00090F83D10012901D001207047022180F8D7
:1026C0003D100168CA6842F00102CA600068114901
:1026D000884214D0B0F1804F11D00F4988420ED0FB
:1026E0000E4988420BD00E49884208D00D498842D5
:1026F00005D00D49884202D00C49884204D1816836
:1027000001F00701062903D0016841F001010160D1
:102710000020704700000140000400400008004015
:10272000000C00400004014000400140001800403F
:1027300070B5044690F83C000025012817D001260A
:1027400084F83C60022084F83D002068826822F012
:10275000770222F47F4282600868502838D00DDC6E
:1027600020284FD005DC90B3102811D14AE0022078
:1027700070BD302846D040280AD13BE060282FD0D9
:1027800070280DD0B0F5805F03D0B0F5005F12D097
:10279000012584F83D60002084F83C00284670BD87
:1027A000CB68D1E90121206801F027FA206881680F
:1027B00041F0770109E0CB68D1E90121206801F0FF
:1027C0001CFA2068816841F480418160E1E719E0EA
:1027D000CA684968206801F0E5FA5021206806E0DF
:1027E000CA684968206801F0EEFA6021206801F0AB
:1027F0000EFACEE7CA684968206801F0D3FA402192
:102800002068F4E7226801461046F0E7704770B58B
:102810000446006801694FF00005C943890715D4D3
:10282000C168C943890711D4E91E016101202077DD
:10283000206880698007204602D0FFF7E7FF04E0A8
:1028400000F0C2F8204600F054F9257720680169AD
:10285000C943490717D4C168C943490713D46FF066
:1028600004010161022020772068806910F4407F14
:10287000204602D0FFF7CAFF04E000F0A5F820468A
:1028800000F037F9257720680169C943090716D494
:10289000C168C943090712D46FF00801016104201F
:1028A00020772068C0698007204602D0FFF7AEFF7E
:1028B00004E000F089F8204600F01BF92577206835
:1028C0000169C943C90617D4C168C943C90613D4ED
:1028D0006FF010010161082020772068C06910F4B2
:1028E000407F204602D0FFF791FF04E000F06CF833
:1028F000204600F0FEF8257720680169C943C90722
:1029000008D1C168C943C90704D1891E01612046A5
:1029100000F054F920680169C943090609D4C16867
:10292000C943090605D46FF0800101612046FFF715
:10293000B5FD20680169C943490609D4C168C94386
:10294000490605D46FF040010161204600F0D2F93C
:1029500020680169C94389060BD4C168C943890647
:1029600007D46FF0200101612046BDE87040FFF7F9
:1029700096BD70BD10B586B0044614216846FDF7BB
:1029800069FC0E492068884216D10D480021026872
:1029900042F010020260006800F0100005904FF451
:1029A000206000900220CDE901010120CDE9031053
:1029B00069460448FFF716F906B010BD0000014053
:1029C0003038024000100240704770B5044690F85D
:1029D0003C0000260D4601280FD0012084F83C0061
:1029E0006AB1042A1DD0082A2FD00C2A3FD0012614
:1029F000002084F83C00304670BD022070BD206885
:102A000001F00EF92068816941F0080181612068B8
:102A1000816921F004018161206881692A6911437B
:102A200011E0206801F02CF92068816941F400610F
:102A300081612068816921F48061816120688169F8
:102A40002A6941EA02218161D2E7206801F04EF94A
:102A50002068C16941F00801C1612068C16921F0A5
:102A60000401C1612068C1692A69114311E020682D
:102A700001F070F92068C16941F40061C16120680A
:102A8000C16921F48061C1612068C1692A6941EA94
:102A90000221C161ACE710B5040003D094F83D00F9
:102AA00010B107E0012010BD002084F83C00204652
:102AB00000F01EF8022084F83D00211D206801F07E
:102AC0002BF8012084F8460084F83E0084F83F008B
:102AD00084F8400084F8410084F8420084F8430000
:102AE00084F8440084F8450084F83D00002010BDBF
:102AF0007047704710B50446022249B104290ED030
:102B0000082913D094F84100012816D0012010BDE7
:102B100094F83E000128F9D184F83E200FE094F8A3
:102B20003F000128F2D184F83F2008E094F84000EB
:102B30000128EBD184F8402001E084F841200122F3
:102B4000206801F04DF816492068164A884201D0E5
:102B5000904203D1436C43F40043436420688842AD
:102B600013D0B0F1804F10D00F4988420DD00F49DB
:102B700088420AD00E49884207D0904205D00D49BC
:102B8000884202D00C49884204D1816801F00701D3
:102B9000062903D0016841F001010160002010BD49
:102BA0000000014000040140000400400008004013
:102BB000000C0040004001400018004070B543493F
:102BC00088427DD1424C2068401C2060C0076BD1F8
:102BD000404D414EA87A012816D14048FEF7DCF856
:102BE00096ED600A00231A46BDEEC00A10EE100AE8
:102BF00096ED5F0A01B2BDEEC00A10EE100A00B2F7
:102C0000FDF756FEFDF708FFA87A03282BD14120D7
:102C1000FEF730F8FEF774F83148DFED320AB0F90C
:102C2000020000EE100A3048B8EEC00A00F004FEC0
:102C30002D48002380ED260ABDEEC00A10EE100AD2
:102C400096ED600A02B2BDEEC00A10EE100A96EDD3
:102C50005F0A01B2BDEEC00A10EE100A00B2FDF725
:102C600027FEFDF787FEA87A02281DD11A4800F03A
:102C700077FE19484C3000F073FE1748E43000F03E
:102C80006FFE1548983000F06BFE184800F068FEA3
:102C900000231A4619461846FDF70AFE00231A4675
:102CA00019461846FDF7E0FD2068642190FBF1F21B
:102CB00001FB1200002808D14FF480610C4800E0AD
:102CC00003E0FFF787F80020206070BD2402002099
:102CD00000000020D0080020440600203406002018
:102CE0003005002000007AC430080020740700205E
:102CF000001C02407047704710B5044600684069E8
:102D000094F83D10C0F3C010212911D180B1206882
:102D1000143050E8001F21F0800140E80012002A22
:102D2000F5D1606B08B1FEF77EFD204601F0FFF89B
:102D30002068406994F83E10C0F38010222911D118
:102D400080B12068143050E8001F21F0400140E8B5
:102D50000012002AF5D1A06B08B1FEF764FD2046F1
:102D600001F0BEF8002010BD70470000F8B5016802
:102D700004460868CA684B6910F00F0F4FF0000551
:102D800059D003F0010602F49077374365D0C107AC
:102D900005D0D10503D5216C41F001012164410723
:102DA00005D5D90703D0216C41F0020121648107C8
:102DB00005D5D90703D0216C41F004012164010736
:102DC00007D502F02001314303D0216C41F0080106
:102DD0002164216C00293AD0800604D5900602D5E2
:102DE000204601F0B2F820684069216CC0F38010E1
:102DF000090700D460B3204601F072F820684069EA
:102E0000400621D52068143050E8001F21F0400111
:102E100040E80012002AF5D1A06BA8B16C49016509
:102E2000A06BFEF749FD002811D0A06B016D01B029
:102E3000BDE8F040084783060FD593060DD5204620
:102E4000BDE8F84001F081B82046FFF78DFFF8BDDE
:102E50002046FFF789FF2564F8BD266B2023012E4D
:102E600079D1C60677D5D60675D50868486800902A
:102E70004869400640D5A16B086840680004000C12
:102E8000EAD0A28D8242E7D9E085C869B0F5807F9B
:102E90002DD020680C3050E8001F21F4807140E8EC
:102EA0000012002AF5D12068143050E8001F21F0EC
:102EB000010140E80012002AF5D12068143050E8E2
:102EC000001F21F0400140E80012002AF5D184F8EB
:102ED0003E30256320680C3050E8001F21F01001BF
:102EE00040E80012002AF5D1A06BFEF79CFCA08DF3
:102EF000E18D401A81B229E0A08DE18D401A81B2A6
:102F0000E08D0028A8D00029A6D020680C3050E819
:102F1000002F22F4907240E80026002EF5D12068A0
:102F2000143050E8002F22F0010240E80026002E65
:102F3000F5D184F83E30256320680C3050E8002F2E
:102F400022F0100240E80023002BF5D12046FFF7C5
:102F5000D2FEF8BDFFE705062BD5150629D594F856
:102F60003D002128F5D1A068B0F5805F01D120692E
:102F7000B0B1206A411C2162216800784860E08C71
:102F8000401E0004000CE084E3D12068C16821F0F9
:102F90008001C1602068C16841F04001C160D8E78C
:102FA000206A0088C0F308004860206A801C206204
:102FB000E5E74006CDD55006CBD5CA68204622F0BD
:102FC0004002CA6084F83D3000F099F9C1E7000082
:102FD000EB3D000870B5040004D094F83D000025D6
:102FE00010B106E0012070BD84F83C50204600F08E
:102FF00023F8242084F83D002068C16821F40051A2
:10300000C160204601F002F82068016921F4904176
:1030100001612068416921F02A0141612068C1688D
:1030200041F40051C1602564202084F83D0084F8FB
:103030003E00002070BD00002DE9F04387B0064639
:1030400014216846FDF706F96C486B4B32686B49F2
:103050001438022500244FF003084FF007099A4264
:1030600032D10A6842F010020A60096801F01001CA
:103070000591016841F002010160016801F002015F
:103080000591016841F001010160006802AA00F0A9
:10309000010005908020CDE9000582E81003694613
:1030A0005748FEF79FFD2802CDE9000502AA6946B0
:1030B00082E810035348FEF795FD002211462520B3
:1030C000FEF704FF25203CE04F4B1F159A423DD1EF
:1030D0004A49091F0A6842F480220A60096801F41B
:1030E00080210591016841F004010160006802AA95
:1030F00000F0040005904FF44060CDE9000582E83F
:10310000100369464148FEF76DFD424D4048286076
:103110007804C5E90104C5E903476C618012AC611C
:10312000C5E9074028466C62FEF7A8FC08B1FDF728
:103130009EFDB563002211462720AE63FEF7C6FE52
:103140002720FEF7B5FE07B0BDE8F083324B9A4268
:10315000F9D10A6842F020020A60096801F02001F2
:103160000591016841F0400101600068029400F09F
:10317000400005904FF48440CDE900050820CDE9DA
:10318000038069462548FEF72DFD224D2448603511
:103190004FF020682860C5E90184C5E903476C61E8
:1031A0004FF48039AC61C5E9074928466C62FEF7E7
:1031B00065FC08B1FDF75BFDB563AE63154D1848BE
:1031C000C0357830E5E80208402091C5114845F83F
:1031D0001449C030AC61C5E907496C62FEF74EFC8A
:1031E00008B1FDF744FD7563002211464720AE6328
:1031F000FEF76CFE4720A4E700100140443802406F
:103200000004024000000240004800400008024064
:1032100028600240380300200014014000180240DA
:103220002864024090F83E30202B0ED159B152B1A3
:1032300090F83C30012B08D0012380F83C3000236B
:10324000036300F069BF012070470220704790F8C7
:103250003E30202B0ED159B152B190F83C30012BA9
:1032600008D0012380F83C300023036300F09CBFAA
:10327000012070470220704710B500681949884244
:1032800012D119481A4A0378184811784354491C36
:10329000C9B21170014411F8011C452904D101780B
:1032A0000023532907D01370BDE8104001220E49B6
:1032B0001048FFF7CCBF104944780C8084784C80CC
:1032C000C4788C808488CC8084790C81B0F80740E5
:1032D0004C81B0F80900888113700D210348FCF778
:1032E000B9FFE1E700100140500000202406002053
:1032F000400000206C020020340600207047704718
:10330000FEE7000010B5012208490948FFF79FFFBA
:1033100008480068C16841F01001C160BDE8104074
:10332000C82205490348FFF77DBF00005000002078
:103330006C020020F40200202E0900209FED0A1AE2
:1033400080ED001A80ED051A80ED090AC0ED0A0A29
:10335000B7EE000A80ED070A80ED081A80ED0B0A2F
:1033600080ED011A7047000000000000F6EE000A30
:103370009FED020A0248FFF7E1BF0000CDCCCC3D33
:10338000E40500200F4810B50D490160032141609C
:1033900000214FF410228160C0E903124FF40012A3
:1033A0004261017641768176C17601774177FEF7F9
:1033B000BCF8002803D0BDE81040FDF758BC10BD94
:1033C0000064004054010020224808B50268002132
:1033D00042F480020260026802F4800200920268F5
:1033E00042F40012026000681B4A00F400100090D2
:1033F0001A48C0E900218022C0E90221D200C0E9B8
:10340000042181610422C161C0E908120322C0E9DC
:103410000A210163FEF732FB08B1FDF728FC002208
:1034200011460C20FEF752FD0C20FEF741FD002254
:1034300011463920FEF74AFD3920FEF739FD0022FA
:1034400011464520FEF742FDBDE808404520FEF745
:103450002FBD000030380240106402407C01002083
:1034600070B586B014216846FCF7F4FE26480024A7
:10347000016841F040010160016801F040010591DF
:10348000016841F001010160016801F0010105914D
:10349000016841F002010160016801F0020105913B
:1034A000016841F008010160016801F0080105911F
:1034B000016841F004010160016801F00401059117
:1034C000016841F080010160016801F0800105910F
:1034D000016841F01001016000680C4E00F010001E
:1034E0004FF4E0550590002229463046FEF77AFC5D
:1034F00001200095CDE90104694630460394FEF7AA
:1035000071FB06B070BD000030380240001C024064
:1035100010B596B000240F94109411941294139443
:103520001C2168461494FCF795FE202107A8FCF79F
:1035300091FE2D482B490160A721C0E9011444F6F2
:103540001F61C0E9031444618461FFF71BF808B1EF
:10355000FDF78DFB4FF480500F900FA92248FFF725
:10356000E7F808B1FDF783FB1F48FFF794FA08B1AD
:10357000FDF77DFB139413A91B481494FEF7BAFFC3
:1035800008B1FDF774FB602000904FF47A70CDE92C
:103590000104039404940594002269461248069499
:1035A000FFF713FA08B1FDF762FB042269460E48E3
:1035B000FFF70BFA08B1FDF75AFB0794089409943A
:1035C0004FF400500A94CDE90B4007A906480E9429
:1035D000FEF766FF08B1FDF74AFB0348FFF7CAF99B
:1035E00016B010BD00000140DC0100201CB5002415
:1035F0000F4800940D4901940160A721C0E901140E
:1036000041F28731C16080218161FEF7BBFF08B1C3
:10361000FDF72DFB0094694605480194FEF76AFF0B
:10362000002801D0FDF723FB1CBD00000010004066
:10363000240200200C4810B50A4901604FF4E13122
:103640004160002181600C22C160C0E904128161E7
:10365000C161FFF7BFFC002803D0BDE81040FDF7B3
:1036600006BB10BD001001406C0200200C4810B5D4
:103670000A4901600B494160002181600C22C16050
:10368000C0E904128161C161FFF7A4FC002803D0E6
:10369000BDE81040FDF7EBBA10BD00000048004047
:1036A000B0020020A08601000C4810B50A49016054
:1036B0004FF4E1314160002181600C22C160C0E91A
:1036C00004128161C161FFF785FC002803D0BDE8C9
:1036D0001040FDF7CCBA10BD00140140F4020020E8
:1036E000FEE7FEE710B5DFED0B0A9FED0B0A0B4A74
:1036F00000210B4800F054F9084A09480C32002117
:10370000BDE81040DFED070A9FED070A4C3000F0DE
:1037100047B900000000C84400409C4534510008EF
:10372000400500200000FA4500803B4610B5DFED63
:10373000210A9FED210A214A00212DED028B20480C
:1037400000F02EF99FED1F8ADFED1F8A1B4A1C48EF
:10375000F0EE480AB0EE680A0C3200214C3000F05E
:103760001FF9164A1648DFED190A9FED190A18329B
:103770000021E43000F014F9104A1148F0EE480A34
:10378000B0EE680A24320021983000F009F90B4AA3
:10379000F0EE480A9FED0F0A303200210E4800F08B
:1037A000FFF80E4806498068C1F88401BDEC028B21
:1037B00010BD0000000048420080BB444C5100088E
:1037C000440600200000FA4500007A4600409C456F
:1037D0000050C34600C0DA4674070020D004002021
:1037E00010B5DFED100A114A00212DED028B9FED7F
:1037F0000E8A0F48B0EE480A00F0D2F80B4A0C4887
:10380000DFED0C0AB0EE480A0C3200214C3800F013
:10381000C7F8074900204C39C1F89C00BDEC028B69
:1038200010BD000000803B450000FA4588510008AB
:103830007C0800200080BB45A0B1D0ED101AC0ED7F
:10384000111A90ED0F1A80ED101AC0ED060A80EDE6
:10385000070A30EEC00A80ED0F0A017829B101296C
:103860003BD078E09FED3D0A7047D0ED010A60EE55
:10387000801AC0ED091AD0ED0A0A90ED022A42EE34
:10388000000A30EE410AC0ED0A0A90ED0D2A80EDE3
:103890000E2A90ED0C2A80ED0D2A80ED0C0A90ED99
:1038A000031A21EE001A80ED0B1A90ED050AF4EED2
:1038B000C00AF1EE10FA09DCB1EE400AF4EEC00ADB
:1038C000F1EE10FA02D390ED0A0A01E080ED0A0A47
:1038D00031EE800A30EE010A2BE070EE410A90EDE5
:1038E000012A20EE822A80ED092AD0ED020A60EE3C
:1038F000800AC0ED0A0AD0ED0D2A72EE200AC0ED52
:103900000E2AD0ED0C2AC0ED0D2AF0EE002A01EEB1
:10391000620A30EE210A80ED0C0A90ED031A21EEC6
:10392000000A80ED0B0A30EE800AD0ED080A30EE76
:10393000200A80ED080AD0ED040AB4EEE00AF1EEA8
:1039400010FA06DCF1EE600AB4EEE00AF1EE10FACD
:1039500001D2C0ED080A90ED080A7047000000008F
:10396000002819D09FED0D0A80ED110A80ED100A94
:1039700080ED0F0A80ED0E0A80ED0D0A80ED0C0A35
:1039800080ED0B0A80ED0A0A80ED090A80ED080A35
:1039900080ED060A80ED070A704700000000000075
:1039A000002828D0002A26D0017092ED001A80ED60
:1039B000011A92ED011A80ED021A92ED021A80EDC1
:1039C000031A80ED040A9FED0C0AC0ED050A80ED94
:1039D0000E0A80ED0D0A80ED0C0A80ED080A80EDDC
:1039E0000B0A80ED0A0A80ED090A80ED110A80EDCC
:1039F000100A80ED0F0A70470000000070470000B9
:103A000030B5144B1C68656945F0400565611B685D
:103A1000DC6844F01004DC600F4B1C68256825F05E
:103A2000010525601C682568ED07F7D11D680B4C62
:103A3000AC601C68E0601868016118684260186832
:103A4000016841F4802101601868016841F00101BA
:103A5000016030BDB002002038030020044800405F
:103A60007047FEF7CBB9000030B593B030216846FF
:103A7000FCF7F0FB14210CA8FCF7ECFB1D4800251B
:103A8000016841F080510160006800F080501190A1
:103A90001948016841F4804101600068022400F483
:103AA000804011900120039010200490009406940F
:103AB0000820CDE90750A820CDE9090404200B9087
:103AC0006846FEF721FB08B172B6FEE70CA90F208D
:103AD00081E831004FF4A0500F904FF480501090C7
:103AE00005210CA8FEF724FA002801D072B6FEE7E3
:103AF00013B030BD403802400070004002480168F9
:103B000041F470010160704788ED00E00148FEF764
:103B10007EBE000024020020F0B50268254C264D30
:103B2000264E274F274B4FF0804CA04209D06045CE
:103B300007D0A84205D0B04203D0B84201D0984285
:103B400004D122F0700E4A6842EA0E02A0421BD055
:103B5000604519D0A84217D0B04215D0B84213D052
:103B6000984211D0184DA8420ED0184DA8420BD043
:103B7000174DA84208D0174DA84205D0164DA842AF
:103B800002D0164DA84203D122F44075CA682A43D8
:103B90004D6922F080022A4302608A68C2620A6884
:103BA0008262A04201D0984201D1096901630121DA
:103BB0004161F0BD000001400004004000080040E9
:103BC000000C00400004014000400140004401405E
:103BD0000048014000180040001C00400020004048
:103BE00010B501F01F030121046A99408C4304625F
:103BF000016A9A401143016210BD10B5846842EA1F
:103C0000032224F47F440A432243826010BD826869
:103C100022F070020A4342F0070181607047000001
:103C2000F0B5026A22F001020262036A4268846906
:103C3000124E24F073050C682C4323F002058B68A8
:103C40002B430D4DA84201D0B04205D123F0080707
:103C5000CB683B4323F00403A84201D0B04205D116
:103C60004D6922F4407215438A692A434260846197
:103C7000496841630362F0BD000001400004014057
:103C8000F0B5026A22F010020262026A4368846997
:103C90000D6824F4E64444EA05248D6822F02002ED
:103CA00042EA05120F4D104EA84201D0B04206D193
:103CB000CF6822F0800242EA071222F04002A842B6
:103CC00001D0B04207D14D6923F4406343EA850334
:103CD0008D6943EA850343608461496881630262B8
:103CE000F0BD00000000014000040140F0B5026A90
:103CF00022F480720262026A4368C46922F400728C
:103D000024F073050C68124E2C438D6842EA05229C
:103D10000E4DA84201D0B04206D1CF6822F4006215
:103D200042EA072222F48062A84201D0B04207D1C1
:103D30004D6923F4405343EA05138D6943EA0513A3
:103D40004360C4614968C1630262F0BD0000014084
:103D50000004014030B5026A22F480520262046A13
:103D60004268C3690D6823F4E64343EA05238D687E
:103D700024F4005444EA0534084DA84202D0084D0A
:103D8000A84204D14D6922F4804242EA8512426081
:103D9000C36149680164046230BD00000000014055
:103DA0000004014010B5036A046A24F001040462AF
:103DB000846924F0F00444EA021423F00A020A435E
:103DC0008461026210BD10B5036A23F01003036220
:103DD0008369046A23F4704343EA023224F0A003A7
:103DE00043EA01118261016210BD10B5806B0021B0
:103DF000C185C184FEF7B8FF10BD70B5846B206823
:103E0000406994F83D10C0F3C0100025212904D169
:103E100018B1E584204600F08AF82068406994F8DB
:103E20003E10C0F38010222904D118B1E585204648
:103E300000F056F8206C40F0100020642046FEF799
:103E400093FF70BD10B50146806B09680968C9050C
:103E50002FD40021C18501680C3151E8002F22F4D4
:103E6000807241E80023002BF5D10168143151E83C
:103E7000002F22F0010241E80023002BF5D1016858
:103E8000143151E8002F22F0400241E80023002BBA
:103E9000F5D1202180F83E10016B012909D101687C
:103EA0000C3151E8002F22F0100241E80023002BD2
:103EB000F5D1016B012902D0FFF7DEF910BD818D2C
:103EC000FEF719FF10BD10B5806B016B012902D000
:103ED000FFF714FA10BD818D4908FEF70CFF10BDE5
:103EE00001680C3151E8002F22F4907241E8002360
:103EF000002BF5D10168143151E8002F22F00102A6
:103F000041E80023002BF5D1016B012909D101689B
:103F10000C3151E8002F22F0100241E80023002B61
:103F2000F5D1202180F83E1000210163704701681F
:103F30000C3151E8002F22F0C00241E80023002B91
:103F4000F5D1202180F83D10704708B590F83E105B
:103F5000222901D0022008BD82684FF480539A4282
:103F600001D1016921B1816A9A421BD04AB10AE0AC
:103F70000268816A5268C2F308020A80816A891C59
:103F800008E0026972B10268526802F07F020A70AA
:103F9000816A491C8162C18D491E0904090CC185D1
:103FA00003D019E002685268F1E70168CA6822F09C
:103FB0002002CA600168CA6822F48072CA6001687F
:103FC0004A6922F001024A61202180F83E10016B0B
:103FD000012903D0FFF750F9002008BD002101633B
:103FE00001680C3151E8002F22F0100241E8002353
:103FF000002BF5D101680A68D20602D50A68496823
:104000000091818DFEF777FEE6E7000070B504466B
:1040100000680169E26821F440511143016121699E
:10402000A068E26908436169114308432168CA68CE
:1040300049F20C639A430243CA6020684169A2694D
:1040400021F440711143416131492068884202D016
:104050003049884202D1FEF715F801E0FEF702F878
:10406000E2690023192164253226B2F5004F626807
:1040700028D0A0FB0101930F9200FCF7A1F80146A4
:10408000B0FBF5F06FF01802504301EB800006EB37
:104090000010B0FBF5F000F0F002B1FBF5F002EB20
:1040A0000012B1FBF5F06FF01803584301EB8000EC
:1040B00006EB0010B0FBF5F000F00F002168104493
:1040C000886070BDA0FB010192185B41FCF778F895
:1040D0000146B0FBF5F00201B1FBF5F06FF01803FB
:1040E000584301EB800006EBC000B0FBF5F000F098
:1040F000F80002EB4002B1FBF5F0584301EB800001
:1041000006EBC000B0FBF5F000F00700D6E70000BA
:10411000001001400014014038B5816282850025FD
:10412000134604460564222084F83E00A26B1B4817
:10413000D063A26B1A481064A26B1A48D064A06BBB
:104140000A4605652168A06B091DFDF701FD206881
:1041500001684068009084F83C5020680C3050E8BA
:10416000001F41F4807140E80012002AF5D1206858
:10417000143050E8001F41F0010140E80012002A0D
:10418000F5D12068143050E8001F41F0400140E8AC
:104190000012002AF5D1002038BD0000453E00087D
:1041A000C73E0008FB3D000881628285C285002170
:1041B0000164222280F83E2080F83C100168CA6821
:1041C00042F48072CA6001684A6942F001024A61A1
:1041D0000068C16841F02001C16000207047000004
:1041E0000148FEF7C3BD00006C020020264818B449
:1041F00000680168890604D501684068009018BC11
:10420000704722490968C906F9D501684068204A03
:104210000090106801684FF024030C031D490468E6
:1042200024F00104046016D410684468C4F1240426
:10423000A4B20C8043601068016841F40021016061
:104240001068016841F001010160122CD7D11249B8
:1042500001F1160015E014686068C0F1240080B216
:10426000088063600D498B6A23F400238B62116818
:104270000A6842F001020A601228C0D1064901F121
:104280003A0018BC00F0EABEB0020020004800402E
:104290003803002052000020D008002000600240B7
:1042A00038B5104800680168C943C90615D40168CB
:1042B000406800900B48FEF71FFD0B4C0B48A168AF
:1042C0008847E16820468847C8210848FBF7C2FFB5
:1042D000C82206490348FEF7A5FFBDE8384001485B
:1042E000FEF744BDF4020020340100202E09002016
:1042F000FEE7000030B50C46050014D0022C12D9A0
:104300000A48A11E02882846FCF7C0FC2919C2B23F
:1043100011F8023C9A4206D111F8011CB1EB102FA2
:1043200001D1012030BD002030BD00004C01002033
:1043300030B50C4605000ED0022C0CD9601E81B29F
:10434000FF222846FCF7B8FC291911F8011C81420C
:1043500001D1012030BD002030BD03B401984100DF
:10436000009850EAC12018BF04204A0D18BF40F041
:10437000010040F2FF72B2EB515F08BF40F0020053
:10438000012808BF052002B070470907090E002860
:1043900004DB00F1E02080F80014704700F00F000B
:1043A00000F1E02080F8141D7047000000000000BC
:1043B00010B52F499FED2C1B2DED020B84B00598F5
:1043C00020F000408842DCBF00209DED040B32DD70
:1043D0002849884209D1049840B94FF0010000F003
:1043E0006FFC00F03DFC06B010BD05DB9DED040B3D
:1043F00000F02AFC06B010BD68469DED040B00F0ED
:104400003BF810F0030011D0012818D09DED021BDD
:104410009DED000B02281AD000F04AFA51EC100B67
:1044200081F0004106B041EC100B10BD9DED021B68
:104430009DED000B012000F06FFB06B010BD9DED5F
:10444000021B9DED000B00F033FA06B010BD0120F9
:1044500000F062FB51EC100B81F0004106B041EC22
:10446000100B10BD00000000000000000000000064
:10447000FB21E93F0000F07F2DE9F14F04462DEDCF
:10448000020B2DED088B8AB09FEDE70B80ED020B40
:10449000139EE74826F0004585420ADC9DED120B8D
:1044A000002084ED000B0AB0BDEC088B03B0BDE822
:1044B000F08FE0489FEDE0AB9FEDE1BBA84247DD08
:1044C000E14F9FEDE39B9FEDE48B9DED120B53ECD1
:1044D0001A2B51EC100B002E1CDDFBF767FF41EC93
:1044E000100BBD4208D053EC1B2B51EC100BFBF70B
:1044F0005DFFC4E900010BE053EC192B51EC100BEC
:10450000FBF754FF53EC182BFBF750FFC4E90001F5
:104510000120C8E7FBF7A9FE41EC100BBD4208D013
:1045200053EC1B2B51EC100BFBF79FFEC4E9000171
:104530000BE053EC192B51EC100BFBF796FE53ECF0
:10454000182BFBF792FEC4E900014FF0FF30AAE7F9
:10455000C348A84279DB9DED120B51EC100B00F023
:10456000D1FB41EC180B9FEDC00B53EC102BFBF76C
:1045700023FF9FEDBF1B53EC112BFBF776FEFCF7DF
:104580000DF80746FBF7F9FF41EC190B53EC1A2B1A
:10459000FBF712FF53EC182BFBF70BFF41EC180B4A
:1045A00053EC1B2B51EC190BFBF706FFDFF8C8A2ED
:1045B00041EC100B4FEA15580125FA4453EC102B2F
:1045C00051EC180BFBF7F2FE032DC4E900013DD0BE
:1045D000C1F30A5005EB4511A8EB000011398142E7
:1045E00034DA0AEB051BB0EE48AA9BED000BF0EEA7
:1045F00068AA53EC102B51EC190BFBF7DDFE41ECD4
:104600001B0B51EC1A0B53EC1B2BFBF7CFFE41ECB1
:10461000180B51EC1A0B53EC182BFBF7C7FE53EC9D
:104620001B2BFBF7C3FE9BED020B41EC1A0B53EC6B
:10463000102B51EC190BFBF7BFFE53EC1A2BFBF7B9
:10464000B5FE41EC100B6D1CB8E70EE0002EA8BFC4
:104650003846BFF628AF94ED000B51EC100B81F0FB
:104660000041C4E9000178421DE7C6F3130040F49D
:10467000801EC6F30A50A0F2F530471100F01F0566
:10468000C5F12000DDF848B00890002006900790A2
:104690000520EC467949002D07EB0002794408BF5C
:1046A00051F8221009D051F8223001EB8201AB40C1
:1046B0004A68089922FA01F11943A1FB0E26A1FBD1
:1046C0000B131A449A4234BF0123002303EB06085C
:1046D0000CEB8003D3E901A60E448E4234BF0121C6
:1046E000002192448A4411B1924502D903E09245D7
:1046F00001D2012100E00021C3E901A641444CF8A8
:104700002010011EA0F10100C4DC029800F100504D
:10471000850F0298DDE903678000DDF81480FBF760
:104720002CFF41EC1A0B3046FCF75EF89FED541B52
:1047300053EC112BFBF740FE41EC1B0B3846FCF70A
:1047400053F89FED511B53EC112BFBF735FE41EC59
:10475000180B4046FCF748F89FED4D1B53EC112B0E
:10476000FBF72AFE41EC190B51EC180B53EC192BFB
:10477000FBF77BFD53EC1B2BFBF777FD53EC1A2B60
:10478000FBF773FDCDE90801002008909DED080BB3
:1047900053EC1A2B51EC100BFBF708FE53EC1B2BC0
:1047A000FBF704FE53EC182BFBF700FE53EC192B20
:1047B000FBF7FFFD9FED381B53EC112BFBF7FCFDC6
:1047C0009FED370B41EC180B53EC102B9DED080BB4
:1047D00051EC100BFBF7F0FD53EC182BFBF745FDEC
:1047E0009FED310B41EC180B53EC102B9DED080B9A
:1047F00051EC100BFBF7E0FD53EC182BFBF735FDEC
:1048000041EC100B139810F0004F06D06D4251ECA4
:10481000100B81F0004141EC100B284684ED000B99
:1048200041E6000000000000000000000000000061
:10483000FB21E93F7CD9024000004054FB21F93FB5
:104840003163621A61B4D03DFB21F93F00000000E2
:104850000000601A61B4D03D7370032E8A19A33B27
:10486000FB2139410000000083C8C96D305FE43F7F
:10487000000000000000E03F120F0000600E00008A
:10488000000000000000103E000000000000103C8E
:10489000000000000000103A182D4454FB21F93D9F
:1048A0003326A611460B113C00000054FB21F93DB4
:1048B00010B52DED040B2DED088B82B0B0EE419AB2
:1048C000F0EE619A0B9820F000449FED4BABB4F1F1
:1048D000795F11DA9DED0A0B51EC100BFBF75EFED0
:1048E000002801BFB0EE4A0AF0EE6A0A02B0BDEC41
:1048F000088B04BF04B010BD9DED0A0B53EC102BC8
:1049000051EC100BFBF758FD41EC180B3C4806210D
:10491000B0EE480AF0EE680A784400F081F853ECF3
:10492000182B51EC100BFBF747FD9DED0A0B41ECEA
:104930001B0B53EC192B51EC100BFBF73DFD41EC1D
:10494000190B53EC1B2B51EC180BFBF735FD53ECFB
:10495000192BFBF72BFD9FED2C0B41EC190B53ECA6
:10496000102B51EC180BFBF727FD41EC100B2848DE
:10497000844210DA53EC192B51EC100BFBF716FDA7
:1049800053EC1A2BFBF715FD41EC100B02B0BDECFC
:10499000088B04B010BD1F48A042BCBF9FED1E1B7A
:1049A0008DED001B06DBA4F50010019000200090A7
:1049B0009DED001B51EC100B53EC112BFBF7F6FC9B
:1049C0009DED000B41EC180B53EC102B51EC1A0B26
:1049D000FBF7ECFC41EC1A0B53EC192B51EC180BC8
:1049E000FBF7E4FC53EC1A2BFBF7E3FC41EC100B58
:1049F000CCE7000000000000000000000000F03FD5
:104A0000840B000000000000000000000000E03FF8
:104A10003333D33F0000E93F000000000000D23FE5
:104A200070B504462DED028B4D1E00EBC500B0EEB7
:104A3000408AF0EE608A90ED000B35F0060017D04A
:104A400053EC182B51EC100BFBF7B6FC41EC100BA0
:104A50006D1E04EBC50090ED001B51EC100B53ECE8
:104A6000112BFBF702FC41EC100B35F00600E7D1EF
:104A7000022D36D0042D1CD0062D1CBFBDEC028BA0
:104A800070BD53EC182B51EC100BFBF795FC94ED1B
:104A90000A1B53EC112BFBF7E8FB53EC182BFBF72D
:104AA0008BFC94ED081B53EC112BFBF7DEFB41EC68
:104AB000100B53EC182B51EC100BFBF77DFC94ED15
:104AC000061B53EC112BFBF7D0FB53EC182BFBF719
:104AD00073FC94ED040B53EC102BFBF7C6FB41EC7D
:104AE000100B53EC182B51EC100BFBF765FC94EDFD
:104AF000021B53EC112BFBF7B8FB53EC182BFBF705
:104B00005BFC94ED001B53EC112BFBF7AEFBBDECF3
:104B1000028B41EC100B70BD31B504462DED040B3A
:104B20002DED0A8BB0EE41BAF0EE61BA0B989DED17
:104B30000A0B20F00040B0F1795F0DDA51EC100B58
:104B4000FFF70BFC042808BF00F09AF89DED0A0B54
:104B5000BDEC0A8B05B030BD53EC102B51EC100BA3
:104B6000FBF72AFC41EC180B9DED0A0B53EC182BBC
:104B700051EC100BFBF720FC41EC190B2C48B0EE6C
:104B8000480AF0EE680A05217844FFF749FF9FEDD7
:104B90002ACBB0EE40AAF0EE60AA9CB353EC1C2BDB
:104BA00051EC190BFBF708FC41EC1C0B53EC1A2BD6
:104BB00051EC190BFBF700FC9FED210B41EC190B9D
:104BC00053EC102B51EC1B0BFBF7F6FB53EC192BA2
:104BD000FBF7ECFB53EC182BFBF7EEFB53EC1B2B1A
:104BE000FBF7E4FB53EC1C2BFBF7E0FB9DED0A1BF2
:104BF00053EC112BFBF7DDFBBDEC0A8B05B041EC50
:104C0000100B30BDFFE753EC1A2B51EC180BFBF7E0
:104C1000D3FB53EC1C2BFBF728FB53EC192BFBF7B6
:104C2000CBFB9DED0A1B53EC112BFBF71EFBE3E7BF
:104C30000C0A000000000000495555555555C5BFE8
:104C4000000000000000E03F10B553EC102B51ECC9
:104C5000100BFBF70AFB41EC100B10BD000000002D
:104C60009FED050B10B553EC102B51EC100BFBF71F
:104C700015FC41EC100B10BD00000000000000000E
:104C80009FED050B10B553EC102B51EC100BFBF7FF
:104C900093FB41EC100B10BD000000000000001061
:104CA00002E008C8121F08C1002AFAD170477047F5
:104CB000002001E001C1121F002AFBD17047000053
:104CC00001490860704700005001002000B58BB01A
:104CD00000200121CDE90601089100900190029089
:104CE00003900590049069460548FCF725FA0448AE
:104CF000FCF766FD02210248FCF7A8F90BB000BDE5
:104D00005401002082B0CDE9000121F00040019063
:104D10009DED000B02B051EC100B7047704701681D
:104D2000B1F8B620521C12B2A1F8B620B1F9B830D1
:104D30009A4203DDA1F8B630012103E0017D01298B
:104D400001D10021017570470268B2F8B810491C02
:104D5000A2F8B61001210175704700002DE9F04757
:104D600005467C484FF00008012604682868C146C3
:104D7000C4F81100287960752878A52873D1052119
:104D80002846FFF7D5FA012855D1608A093087B245
:104D9000278039462846FFF7ADFA01284BD18046D7
:104DA000A4F8B690B5F8050040F202226080A0F2A7
:104DB000022190426CD019DC40F20112A0F20111E4
:104DC00090424BD008DC012827D0022834D0032899
:104DD00036D004282FD138E0012945D0032949D005
:104DE00004294CD0B1F5807F25D14CE005296BD04A
:104DF00008DC012954D0022959D003295BD00429A9
:104E000019D15CE006296CD0072975D0FF2978D02C
:104E1000A1F5807101390ED17DE0D5F80700C4F805
:104E20001600D5F80B00C4F81A00B5F80F00E0839F
:104E3000687C84F8200075E0E87984F8210071E04E
:104E40002022E91D04F122002EE0B5F80700A4F8A5
:104E50004200687A84F84400667363E0D5F807007E
:104E6000C4F845005EE068E0D5F80700C4F84900E2
:104E7000A67357E0B5F80700A4F84D0052E0E879B2
:104E800084F84F004EE01B22E91D04F150000BE0B6
:104E90001022E91D04F16B00FBF7C3F9A67241E093
:104EA0001022E91D04F17B00FBF7BBF93AE0E87939
:104EB00084F88B0036E0E87984F88C0032E0E879F9
:104EC00084F88D0026732DE0D5F80700C4F88E0015
:104ED000B5F80B00A4F89200687B84F89400E672A1
:104EE00020E0D5F80700C4F89500B5F80B00A4F849
:104EF000990017E000E004E0D5F80700C4F89B0033
:104F000010E0D5F80700C4F89F00D5F80B00C4F8EE
:104F1000A300267406E00F22E91D04F1A700FBF7A9
:104F200080F9E673E85DA52802D1E819FFF716FFBE
:104F3000B8F1000F01D0012000E00020A07110B1F5
:104F4000A671BDE8F087A088401CA08084F8069078
:104F5000F7E7000034010020FCF758FFFEF784FD5E
:104F6000FEF77EFAFEF730FAFEF70CFAFEF79CFB2E
:104F7000FEF760FBFEF73AFBFEF778FBFEF7C8FA98
:104F800000F064F8FEF7BEF9FEF7ACFBFEF7CEFBCF
:104F9000FEF726FCFBF7A0FEFEF7E8F9FFF796FE0A
:104FA0001A48FDF785FB1A48FDF746FB0021184813
:104FB000FDF7A0FD04211648FDF79CFD144C4FF4AD
:104FC0007A7520684563206885636420FCF7F8FDE6
:104FD000104968004FF41673B1F90220B1F90610B8
:104FE0000AE0266870632668B0639A4204DD206890
:104FF00045632068856301E09942F2DB3220FBF7CC
:1050000039FE6420FCF7DCFDF8E7000024020020F4
:10501000DC010020D008002030B50388C18841F6AB
:10502000FE75591A09B201F6FF748268AC4208D9BC
:10503000002903DBA1F5F851FF3902E041F6FF74C6
:10504000214411448160C38030BD00000249242204
:10505000A1F12400FEF7D4BC0A090020F0B5002815
:1050600055D0002953D00278437842EA0322C2F394
:105070000A020A8043788478DB0843EA4413C3F3C6
:105080000A034B808478C578A40944EA850405792D
:1050900044EA8524C4F30A048C80057946796D08B6
:1050A00045EAC615C5F30A05CD804679C6F3011653
:1050B0008E724679B609CE728679C77946EA072696
:1050C0008E81067A477A46EA0726CE81867AC77AA3
:1050D00046EA07260E82067B8E74467BCE74867B5C
:1050E000C77B46EA07268E82067C407CA2F580625A
:1050F0000A80A3F580634B80A4F5806446EA002013
:105100008C80A5F58065CD80A0F580600881F0BD1C
:105110000006101600061016000000000000000037
:10512000010203040607080900000000010203044D
:1051300000002041CDCCCC3E00000000000000006B
:10514000000020410AD7A33C0000000052B89E3E58
:1051500000000000000000000000204100000000EE
:105160000000000000009041CDCCCC3D00000000CC
:1051700000007041000000000000000000004041FD
:105180009A99993E00000000CDCCCC3D0000000073
:10519000000000000000B0400AD7A33C000000005F
:1051A000005EBCE2613FDD83C29C7E20A3FD1F4107
:1051B0009DC3217FFCA2401E5F01E3BD3E6082DCF7
:1051C000237D9FC1421CFEA0E1BF5D0380DE3C62E7
:1051D000BEE0025CDF81633D7C22C09E1D43A1FFD7
:1051E0004618FAA427799BC584DA3866E5BB5907C7
:1051F000DB856739BAE406581947A5FB7826C49AB7
:10520000653BD987045AB8E6A7F91B45C6987A24A6
:10521000F8A6441A99C7257B3A6486D85B05E7B996
:105220008CD2306EEDB3510F4E10F2AC2F7193CD86
:10523000114FADF3702ECC92D38D6F31B2EC0E5076
:10524000AFF1134DCE90722C6D33D18F0C52B0EE66
:10525000326C8ED0530DEFB1F0AE4C1291CF2D7356
:10526000CA947628ABF517490856B4EA6937D58B46
:105270005709EBB536688AD495CB2977F4AA481636
:10528000E9B7550B88D6346A2B7597C94A14F6A826
:10529000742AC896154BA9F7B6E80A54D7896B3516
:1052A0000000891112239B322446AD573665BF7426
:1052B000488CC19D5AAFD3BE6CCAE5DB7EE9F7F8D6
:1052C0008110080193331A22A5562C47B7753E6406
:1052D000C99C408DDBBF52AEEDDA64CBFFF976E8B6
:1052E00002218B30100299132667AF763444BD55E6
:1052F0004AADC3BC588ED19F6EEBE7FA7CC8F5D996
:1053000083310A2091121803A7772E66B5543C45C5
:10531000CBBD42ACD99E508FEFFB66EAFDD874C975
:1053200004428D5316619F702004A9153227BB36A5
:105330004CCEC5DF5EEDD7FC6888E1997AABF3BA55
:1053400085520C4397711E60A1142805B3373A2685
:10535000CDDE44CFDFFD56ECE9986089FBBB72AA35
:1053600006638F7214409D512225AB343006B91765
:105370004EEFC7FE5CCCD5DD6AA9E3B8788AF19B15
:1053800087730E6295501C41A3352A24B116380745
:10539000CFFF46EEDDDC54CDEBB962A8F99A708BF5
:1053A000088481951AA793B62CC2A5D33EE1B7F025
:1053B0004008C919522BDB3A644EED5F766DFF7CD5
:1053C000899400859BB712A6ADD224C3BFF136E005
:1053D000C1184809D33B5A2AE55E6C4FF77D7E6CB5
:1053E0000AA583B4188691972EE3A7F23CC0B5D1E5
:1053F0004229CB38500AD91B666FEF7E744CFD5D95
:105400008BB502A499961087AFF326E2BDD034C1C4
:10541000C3394A28D11A580BE77F6E6EF55C7C4D74
:105420000CC685D71EE597F42880A1913AA3B3B2A4
:10543000444ACD5B5669DF78600CE91D722FFB3E54
:105440008DD604C79FF516E4A9902081BBB332A284
:10545000C55A4C4BD7795E68E11C680DF33F7A2E34
:105460000EE787F61CC495D52AA1A3B03882B19364
:10547000466BCF7A5448DD59622DEB3C700EF91F14
:105480008FF706E69DD414C5ABB122A0B992308344
:10549000C77B4E6AD5585C49E33D6A2CF11E780FF4
:1054A0004C5555555555A53F7751C1166CC156BF42
:1054B0009015CB19A001FA3EAD529C804F7E92BE52
:1054C000C4B1B4BD9EEE213ED43888BEE9FAA8BD71
:1054D00000004054FB21F93F3163621A61B4D03DB2
:1054E0000000601A61B4D03D7370032E8A19A33B8B
:1054F0000000002E8A19A33BC14920259A837B39DD
:1055000000000000000000006E83F9A22915444E3F
:10551000D15727FCC0DD34F5999562DB4190433CBF
:10552000AB6351FE61C5BBDE3A6E24B7E0D24D429B
:10553000EA2E49061C92D1091CEB1DFE3EA729B19B
:10554000F53582E88444BB2E26709CE9417E5FB429
:1055500039D69139F43953838B5F849C3B28F9BD4C
:10556000FF97F81F0F9805DE8B112FEF1F6D0A5A5A
:10557000CF7E366DB709CB27663F464F2DEA5F9E3B
:10558000C7BA27757BF1E5EBF739073DEA92528AF6
:10559000B15FFB6B085D8D1FA6F810111111813FE3
:1055A000D561C119A0012ABF7DFEB157E31DC73ED9
:1055B000EB9C2B8AE6E55ABE7CD5CF5A3AD9E53D1D
:1055C000E055000800000020540100000208000817
:1055D0001056000854010020A40C0000B04C000834
:1055E0004132018210031524F42924210B19803F34
:1055F0001D012D02B93C12C8227A1420494D1B0806
:105600005D041A1D041A1F041201120863FFFF0033
:040000050800018965
:00000001FF
